:1000000067C07EC07DC07CC07BC07BC179C078C02A
:1000100077C076C075C074C073C072C071C0000074
:10002000000036007E306D79335B5F707F7B771F19
:100030000D3D4F47000000000000000000000000E0
:1000400000000000000000000000000000000000B0
:10005000800180007E306D79335B5F707F7B0000B4
:100060000000000000771F0D3D4F470037000000E3
:100070000E0000006700000000000000000000000B
:100080000000000800771F0D3D4F470037000000BB
:100090000E00151D670000000000000000000000B9
:1000A00000000000000000003700000000003800E1
:1000B00002020202020202020202010204081020ED
:1000C00020041008010200000400000000004303A7
:1000D00011241FBECFEDCDBF20E0A0E6B0E001C0EF
:1000E0001D92AA3DB207E1F710E0C8E6D0E003C0D8
:1000F0002197FE0174D3C736D107D1F74CD175C310
:100100007FCF823089F018F4813051F00895833028
:1001100019F0843009F008958CB58F7D8CBD089559
:100120008AB58F778ABD08958AB58F7DFBCF1F93DF
:10013000CF93DF93282F30E0F901EC53FF4F8491E8
:10014000F901E654FF4FD491F901E055FF4FC491F6
:10015000CC23A1F0162F8111D4DFEC2FF0E0EE0FAD
:10016000FF1FE655FF4FA591B4918FB7F894EC911E
:10017000111108C0D095DE23DC938FBFDF91CF91A2
:100180001F910895DE2BF8CFCF93DF9390E0FC0111
:10019000E654FF4F249180559F4FFC0184918823A2
:1001A000D1F090E0880F991FFC01EC55FF4FA5910D
:1001B000B491FC01E655FF4FC591D491623071F4C2
:1001C0009FB7F8943C91822F809583238C93E8818C
:1001D0002E2B28839FBFDF91CF9108958FB7F8947E
:1001E000EC912E2B2C938FBFF6CF0895611111C087
:1001F00080916200909163000196833091052CF408
:1002000090936300809362000895109263001092AF
:1002100062000895CF92DF92EF92FF920F931F93A7
:10022000CF93DF9300D0CDB7DD2769834A83880F52
:10023000991F0091D8001091D900000F111FE2E81A
:10024000F0E09F01225830402017310714F411923A
:10025000F8CF2981FC01EE57FF4F21838A818083EB
:1002600060E08091D60063DF10161106ECF40150B7
:100270001109F801EE57FF4FE080D090D400C090F4
:10028000D20088E0F82E6E2D661F6627661F8C2D23
:100290004EDFEE0C61E08D2D4ADF60E08D2D47DFF3
:1002A000FA94F110F0CFE0CF61E08091D600CE5FFC
:1002B000CDBFDF91CF911F910F91FF90EF90DF9015
:1002C000CF9035CFEF92FF920F931F93CF937C0186
:1002D0008C0183E0000F111F8A95E1F70E561F4F26
:1002E000C1E0F80111928F0140E06C2FC70192DF4D
:1002F000CF5FC930B1F7CF911F910F91FF90EF9071
:1003000008951F920F920FB60F9211242F933F93CF
:100310008F939F93AF93BF9380917E0090917F00C6
:10032000A0918000B091810030917D0020E3230FE7
:100330002D3758F54096A11DB11D20937D00809367
:100340007E0090937F00A0938000B0938100809105
:10035000790090917A00A0917B00B0917C00019689
:10036000A11DB11D8093790090937A00A0937B002A
:10037000B0937C00BF91AF919F918F913F912F914E
:100380000F900FBE0F901F90189523EB230F4196EF
:10039000A11DB11DD2CF78948AB582608ABD8AB57D
:1003A00081608ABD83B7826083BF83B7816083BF6A
:1003B00089B7826089BF80B7826080BF3298319AE6
:1003C000309A379A8CB580648CBD84B7877F84BFA0
:1003D00081B5886181BD11BC62E084E0D5DE809189
:1003E000D8009091D900181619062CF441E06CE061
:1003F00090E080E00FDF8091D8009091D90018162E
:1004000019062CF448E06AE090E080E003DF809178
:10041000D8009091D900181619061CF490E080E0DD
:1004200051DF83E190E00197F1F79EEB292E90E0F8
:10043000392E24EB822E20E0922E0AE010E034E6E2
:10044000E32EF12C40E0C42E40E0D42E52E0A52E45
:10045000B12CE8ECF0E08491F101C491F401D49165
:10046000DD2371F081114DDEED2FF0E0EE0FFF1F67
:10047000E25EFF4FA591B4918C91C82361E009F42D
:1004800060E080916E00681799F02FB7F894809122
:100490007E0090917F00A0918000B09181002FBFDD
:1004A00080936F0090937000A0937100B0937200DE
:1004B00060936E00809173009091740020916D00A4
:1004C000211104C080917500909176002FB7F894A7
:1004D00040907E0050907F0060908000709081007E
:1004E0002FBF20916F0030917000409171005091AA
:1004F0007200421A530A640A750AB0E0A0E084153B
:100500009505A605B70568F480916D00681749F058
:1005100060936D00E0917700F091780080916C001D
:1005200009958FB7F89440907E0050907F006090BE
:100530008000709081008FBF4092680050926900E7
:1005400060926A0070926B008091640090916500E7
:10055000A0916600B0916700A3019201281B390B9E
:100560004A0B5B0BDA01C90184369105A105B1057F
:1005700008F46EC08091620090916300009709F0CA
:100580006DC01092610010926000C0916000D09127
:1005900061008091D8009091D900181619061CF4BA
:1005A00090E080E08FDE8091D8009091D9001816FD
:1005B0001906B4F4CE01B701EBD0AE01481B590BBC
:1005C000CA01B701E5D0603158F47727FB01EC5D33
:1005D000FF4F44914093940063E090E080E01ADE86
:1005E0008091D8009091D900181619069CF4CE017C
:1005F000B801CED0CB01B801CBD0803158F48C5D9E
:100600009F4FFC01449140684093930062E090E06A
:1006100080E000DE8091D8009091D900181619066C
:100620007CF4CE01B801B4D0803150F48C5D9F4F82
:10063000FC0144914093920061E090E080E0EADDAB
:10064000409264005092650060926600709267006C
:10065000C114D10409F4FDCED3DCFBCE019709F01F
:1006600094CF809160009091610001969093610019
:1006700080936000873E934009F087CFB09263007B
:10068000A092620082CFCF93DF93C1E0D0E0D093FD
:10069000D300C093D20082E090E09093D500809385
:1006A000D4001092D7001092D600D093D900C093F6
:1006B000D80061E081E068DD61E08091D40064DD14
:1006C00061E08091D60060DD61E08091D6002FDD91
:1006D000D093D300C093D200E2E9F0E0119280E021
:1006E000E23DF807D9F7D0E0C0E08091D8009091C2
:1006F000D900C817D9074CF540E06FE0CE018ADD7C
:100700008091D8009091D900C817D90724F447E008
:100710006BE0CE017FDD40E069E0CE017BDD8091C2
:10072000D8009091D900C817D90714F4CE01CADDBA
:100730008091D8009091D900C817D90724F440E0DF
:100740006CE0CE0167DD2196D0CF84E080936C0011
:1007500081E080936D0080936E0010926F00109284
:100760007000109271001092720089E190E09093F5
:10077000740080937300909376008093750086EFE9
:1007800090E09093780080937700DF91CF91089567
:1007900097FB072E16F4009406D077FD08D00BD0F7
:1007A00007FC05D03EF4909581959F4F0895709574
:1007B00061957F4F0895AA1BBB1B51E107C0AA1F7B
:1007C000BB1FA617B70710F0A61BB70B881F991FF2
:1007D0005A95A9F780959095BC01CD010895EE0F2B
:0E07E000FF1F0590F491E02D0994F894FFCFCF
:00000001FF
